{
  "contractName": "BankDeposit",
  "abi": [
    {
      "anonymous": false,
      "inputs": [
        {
          "indexed": false,
          "internalType": "string",
          "name": "message",
          "type": "string"
        }
      ],
      "name": "Info",
      "type": "event"
    },
    {
      "anonymous": false,
      "inputs": [
        {
          "indexed": false,
          "internalType": "address",
          "name": "investor",
          "type": "address"
        },
        {
          "indexed": false,
          "internalType": "uint256",
          "name": "amount",
          "type": "uint256"
        }
      ],
      "name": "Invest",
      "type": "event"
    },
    {
      "anonymous": false,
      "inputs": [
        {
          "indexed": false,
          "internalType": "address",
          "name": "investor",
          "type": "address"
        },
        {
          "indexed": false,
          "internalType": "uint256",
          "name": "amount",
          "type": "uint256"
        }
      ],
      "name": "Withdraw",
      "type": "event"
    },
    {
      "constant": true,
      "inputs": [
        {
          "internalType": "address",
          "name": "",
          "type": "address"
        }
      ],
      "name": "allPercentWithdraw",
      "outputs": [
        {
          "internalType": "uint256",
          "name": "",
          "type": "uint256"
        }
      ],
      "payable": false,
      "stateMutability": "view",
      "type": "function"
    },
    {
      "constant": true,
      "inputs": [
        {
          "internalType": "address",
          "name": "",
          "type": "address"
        }
      ],
      "name": "balance",
      "outputs": [
        {
          "internalType": "uint256",
          "name": "",
          "type": "uint256"
        }
      ],
      "payable": false,
      "stateMutability": "view",
      "type": "function"
    },
    {
      "constant": true,
      "inputs": [
        {
          "internalType": "address",
          "name": "",
          "type": "address"
        }
      ],
      "name": "percentWithdraw",
      "outputs": [
        {
          "internalType": "uint256",
          "name": "",
          "type": "uint256"
        }
      ],
      "payable": false,
      "stateMutability": "view",
      "type": "function"
    },
    {
      "constant": true,
      "inputs": [],
      "name": "stepTime",
      "outputs": [
        {
          "internalType": "uint256",
          "name": "",
          "type": "uint256"
        }
      ],
      "payable": false,
      "stateMutability": "view",
      "type": "function"
    },
    {
      "constant": true,
      "inputs": [
        {
          "internalType": "address",
          "name": "",
          "type": "address"
        }
      ],
      "name": "time",
      "outputs": [
        {
          "internalType": "uint256",
          "name": "",
          "type": "uint256"
        }
      ],
      "payable": false,
      "stateMutability": "view",
      "type": "function"
    },
    {
      "constant": true,
      "inputs": [
        {
          "internalType": "address",
          "name": "",
          "type": "address"
        }
      ],
      "name": "userDeposit",
      "outputs": [
        {
          "internalType": "uint256",
          "name": "",
          "type": "uint256"
        }
      ],
      "payable": false,
      "stateMutability": "view",
      "type": "function"
    },
    {
      "constant": false,
      "inputs": [],
      "name": "bankAccount",
      "outputs": [],
      "payable": true,
      "stateMutability": "payable",
      "type": "function"
    },
    {
      "constant": false,
      "inputs": [],
      "name": "collectPercent",
      "outputs": [],
      "payable": false,
      "stateMutability": "nonpayable",
      "type": "function"
    },
    {
      "constant": false,
      "inputs": [],
      "name": "deposit",
      "outputs": [],
      "payable": true,
      "stateMutability": "payable",
      "type": "function"
    },
    {
      "constant": true,
      "inputs": [],
      "name": "percentRate",
      "outputs": [
        {
          "internalType": "uint256",
          "name": "",
          "type": "uint256"
        }
      ],
      "payable": false,
      "stateMutability": "view",
      "type": "function"
    },
    {
      "constant": true,
      "inputs": [],
      "name": "payoutAmount",
      "outputs": [
        {
          "internalType": "uint256",
          "name": "",
          "type": "uint256"
        }
      ],
      "payable": false,
      "stateMutability": "view",
      "type": "function"
    },
    {
      "constant": false,
      "inputs": [],
      "name": "returnDeposit",
      "outputs": [],
      "payable": false,
      "stateMutability": "nonpayable",
      "type": "function"
    }
  ],
  "bytecode": "0x608060405260b460055534801561001557600080fd5b50611090806100256000396000f3fe6080604052600436106100a75760003560e01c80637e88f603116100645780637e88f603146102275780638090114f1461023e578063d0e30db014610269578063d1260edd14610273578063e3d670d7146102d8578063f488fdd01461033d576100a7565b80631cd01e3a146100ac578063377a0f53146100c35780634883c329146100cd5780636b46c8c3146101325780637960eff81461015d5780637c67a3e2146101c2575b600080fd5b3480156100b857600080fd5b506100c1610368565b005b6100cb61083e565b005b3480156100d957600080fd5b5061011c600480360360208110156100f057600080fd5b81019080803573ffffffffffffffffffffffffffffffffffffffff169060200190929190505050610854565b6040518082815260200191505060405180910390f35b34801561013e57600080fd5b5061014761086c565b6040518082815260200191505060405180910390f35b34801561016957600080fd5b506101ac6004803603602081101561018057600080fd5b81019080803573ffffffffffffffffffffffffffffffffffffffff1690602001909291905050506109be565b6040518082815260200191505060405180910390f35b3480156101ce57600080fd5b50610211600480360360208110156101e557600080fd5b81019080803573ffffffffffffffffffffffffffffffffffffffff1690602001909291905050506109d6565b6040518082815260200191505060405180910390f35b34801561023357600080fd5b5061023c6109ee565b005b34801561024a57600080fd5b50610253610b4b565b6040518082815260200191505060405180910390f35b610271610d5e565b005b34801561027f57600080fd5b506102c26004803603602081101561029657600080fd5b81019080803573ffffffffffffffffffffffffffffffffffffffff169060200190929190505050610fa2565b6040518082815260200191505060405180910390f35b3480156102e457600080fd5b50610327600480360360208110156102fb57600080fd5b81019080803573ffffffffffffffffffffffffffffffffffffffff169060200190929190505050610fba565b6040518082815260200191505060405180910390f35b34801561034957600080fd5b50610352610fd2565b6040518082815260200191505060405180910390f35b6000600160003373ffffffffffffffffffffffffffffffffffffffff1673ffffffffffffffffffffffffffffffffffffffff168152602001908152602001600020541161041d576040517f08c379a00000000000000000000000000000000000000000000000000000000081526004018080602001828103825260108152602001807f436c69656e74206e6f7420666f756e640000000000000000000000000000000081525060200191505060405180910390fd5b610471600554600260003373ffffffffffffffffffffffffffffffffffffffff1673ffffffffffffffffffffffffffffffffffffffff16815260200190815260200160002054610fd890919063ffffffff16565b4210156104e6576040517f08c379a000000000000000000000000000000000000000000000000000000000815260040180806020018281038252601b8152602001807f546f6f2066617374207769746864726177616c2072657175657374000000000081525060200191505060405180910390fd5b600460003373ffffffffffffffffffffffffffffffffffffffff1673ffffffffffffffffffffffffffffffffffffffff168152602001908152602001600020546105796002600160003373ffffffffffffffffffffffffffffffffffffffff1673ffffffffffffffffffffffffffffffffffffffff16815260200190815260200160002054610ff490919063ffffffff16565b11610652576000600160003373ffffffffffffffffffffffffffffffffffffffff1673ffffffffffffffffffffffffffffffffffffffff168152602001908152602001600020819055506000600260003373ffffffffffffffffffffffffffffffffffffffff1673ffffffffffffffffffffffffffffffffffffffff168152602001908152602001600020819055506000600360003373ffffffffffffffffffffffffffffffffffffffff1673ffffffffffffffffffffffffffffffffffffffff1681526020019081526020016000208190555061083c565b600061065c61086c565b90506106b081600360003373ffffffffffffffffffffffffffffffffffffffff1673ffffffffffffffffffffffffffffffffffffffff16815260200190815260200160002054610fd890919063ffffffff16565b600360003373ffffffffffffffffffffffffffffffffffffffff1673ffffffffffffffffffffffffffffffffffffffff1681526020019081526020016000208190555061074581600460003373ffffffffffffffffffffffffffffffffffffffff1673ffffffffffffffffffffffffffffffffffffffff16815260200190815260200160002054610fd890919063ffffffff16565b600460003373ffffffffffffffffffffffffffffffffffffffff1673ffffffffffffffffffffffffffffffffffffffff168152602001908152602001600020819055503373ffffffffffffffffffffffffffffffffffffffff166108fc829081150290604051600060405180830381858888f193505050501580156107ce573d6000803e3d6000fd5b507f884edad9ce6fa2440d8a54cc123490eb96d2768479d49ff9c7366125a94243643382604051808373ffffffffffffffffffffffffffffffffffffffff1673ffffffffffffffffffffffffffffffffffffffff1681526020018281526020019250505060405180910390a1505b565b66038d7ea4c6800034101561085257600080fd5b565b60046020528060005260406000206000915090505481565b600080610877610b4b565b905060006108e16005546108d3600260003373ffffffffffffffffffffffffffffffffffffffff1673ffffffffffffffffffffffffffffffffffffffff168152602001908152602001600020544261102b90919063ffffffff16565b61104290919063ffffffff16565b9050600061094a8361093c6064600160003373ffffffffffffffffffffffffffffffffffffffff1673ffffffffffffffffffffffffffffffffffffffff1681526020019081526020016000205461104290919063ffffffff16565b610ff490919063ffffffff16565b905060006109b2600360003373ffffffffffffffffffffffffffffffffffffffff1673ffffffffffffffffffffffffffffffffffffffff168152602001908152602001600020546109a48585610ff490919063ffffffff16565b61102b90919063ffffffff16565b90508094505050505090565b60036020528060005260406000206000915090505481565b60026020528060005260406000206000915090505481565b6000600160003373ffffffffffffffffffffffffffffffffffffffff1673ffffffffffffffffffffffffffffffffffffffff1681526020019081526020016000205490506000600160003373ffffffffffffffffffffffffffffffffffffffff1673ffffffffffffffffffffffffffffffffffffffff168152602001908152602001600020819055506000600260003373ffffffffffffffffffffffffffffffffffffffff1673ffffffffffffffffffffffffffffffffffffffff168152602001908152602001600020819055506000600360003373ffffffffffffffffffffffffffffffffffffffff1673ffffffffffffffffffffffffffffffffffffffff168152602001908152602001600020819055503373ffffffffffffffffffffffffffffffffffffffff166108fc829081150290604051600060405180830381858888f19350505050158015610b47573d6000803e3d6000fd5b5050565b6000678ac7230489e80000600160003373ffffffffffffffffffffffffffffffffffffffff1673ffffffffffffffffffffffffffffffffffffffff168152602001908152602001600020541015610ba55760059050610d5b565b678ac7230489e80000600160003373ffffffffffffffffffffffffffffffffffffffff1673ffffffffffffffffffffffffffffffffffffffff1681526020019081526020016000205410158015610c4357506801158e460913d00000600160003373ffffffffffffffffffffffffffffffffffffffff1673ffffffffffffffffffffffffffffffffffffffff16815260200190815260200160002054105b15610c515760079050610d5b565b6801158e460913d00000600160003373ffffffffffffffffffffffffffffffffffffffff1673ffffffffffffffffffffffffffffffffffffffff1681526020019081526020016000205410158015610cf057506801a055690d9db80000600160003373ffffffffffffffffffffffffffffffffffffffff1673ffffffffffffffffffffffffffffffffffffffff16815260200190815260200160002054105b15610cfe5760089050610d5b565b6801a055690d9db80000600160003373ffffffffffffffffffffffffffffffffffffffff1673ffffffffffffffffffffffffffffffffffffffff1681526020019081526020016000205410610d565760099050610d5b565b600090505b90565b6000341115610fa0576000600160003373ffffffffffffffffffffffffffffffffffffffff1673ffffffffffffffffffffffffffffffffffffffff16815260200190815260200160002054118015610e085750610e05600554600260003373ffffffffffffffffffffffffffffffffffffffff1673ffffffffffffffffffffffffffffffffffffffff16815260200190815260200160002054610fd890919063ffffffff16565b42115b15610e5b57610e15610368565b6000600360003373ffffffffffffffffffffffffffffffffffffffff1673ffffffffffffffffffffffffffffffffffffffff168152602001908152602001600020819055505b610ead34600160003373ffffffffffffffffffffffffffffffffffffffff1673ffffffffffffffffffffffffffffffffffffffff16815260200190815260200160002054610fd890919063ffffffff16565b600160003373ffffffffffffffffffffffffffffffffffffffff1673ffffffffffffffffffffffffffffffffffffffff1681526020019081526020016000208190555042600260003373ffffffffffffffffffffffffffffffffffffffff1673ffffffffffffffffffffffffffffffffffffffff168152602001908152602001600020819055507fd90d253a9de34d2fdd5a75ae49ea17fcb43af32fc8ea08cc6d2341991dd3872e3334604051808373ffffffffffffffffffffffffffffffffffffffff1673ffffffffffffffffffffffffffffffffffffffff1681526020018281526020019250505060405180910390a15b565b60006020528060005260406000206000915090505481565b60016020528060005260406000206000915090505481565b60055481565b600080828401905083811015610fea57fe5b8091505092915050565b6000808314156110075760009050611025565b600082840290508284828161101857fe5b041461102057fe5b809150505b92915050565b60008282111561103757fe5b818303905092915050565b60008082848161104e57fe5b049050809150509291505056fea265627a7a72315820bab2d3612331f6231686bd1a829a60e0d64cbe543294b6b799a85ca16680de2664736f6c63430005100032",
  "source": "// SPDX-License-Identifier: MIT\npragma solidity >=0.4.22 <0.9.0;\n\nimport \"./SafeMath.sol\";\n\ncontract BankDeposit {\n    using SafeMath for uint;\n    mapping(address => uint) public userDeposit;\n    mapping(address => uint) public balance;\n    mapping(address => uint) public time;\n    mapping(address => uint) public percentWithdraw;\n    mapping(address => uint) public allPercentWithdraw;\n    uint public stepTime = 0.05 hours;\n\n    event Invest(address investor, uint256 amount);\n    event Withdraw(address investor, uint256 amount);\n    event Info(string message);\n\n    modifier userExist() {\n        require(balance[msg.sender] > 0, \"Client not found\");\n        _;\n    }\n\n    modifier checkTime() {\n        require(now >= time[msg.sender].add(stepTime), \"Too fast withdrawal request\");\n        _;\n    }\n\n    function bankAccount() public payable {\n        require(msg.value >= .001 ether);\n    }\n\n    function collectPercent() userExist checkTime public {\n        if (balance[msg.sender].mul(2) <= allPercentWithdraw[msg.sender]) {\n            balance[msg.sender] = 0;\n            time[msg.sender] = 0;\n            percentWithdraw[msg.sender] = 0;\n        } else {\n            uint payout = payoutAmount();\n            percentWithdraw[msg.sender] = percentWithdraw[msg.sender].add(payout);\n            allPercentWithdraw[msg.sender] = allPercentWithdraw[msg.sender].add(payout);\n            msg.sender.transfer(payout);\n            emit Withdraw(msg.sender, payout);\n        }\n    }\n\n    function deposit() public payable {\n        if (msg.value > 0) {\n            if (balance[msg.sender] > 0 && now > time[msg.sender].add(stepTime)) {\n                collectPercent();\n                percentWithdraw[msg.sender] = 0;\n            }\n            balance[msg.sender] = balance[msg.sender].add(msg.value);\n            time[msg.sender] = now;\n            emit Invest(msg.sender, msg.value);\n        }\n    }\n\n    function percentRate() public view returns (uint) {\n        if (balance[msg.sender] < 10 ether) {\n            return (5);\n        }\n        if (balance[msg.sender] >= 10 ether && balance[msg.sender] < 20 ether) {\n            return (7);\n        }\n        if (balance[msg.sender] >= 20 ether && balance[msg.sender] < 30 ether) {\n            return (8);\n        }\n        if (balance[msg.sender] >= 30 ether) {\n            return (9);\n        }\n        return 0;\n    }\n\n    function payoutAmount() public view returns (uint256) {\n        uint percent = percentRate();\n        uint different = now.sub(time[msg.sender]).div(stepTime);\n        uint rate = balance[msg.sender].div(100).mul(percent);\n        uint withdrawalAmount = rate.mul(different).sub(percentWithdraw[msg.sender]);\n        return withdrawalAmount;\n    }\n\n    function returnDeposit() public {\n        uint withdrawalAmount = balance[msg.sender];\n        balance[msg.sender] = 0;\n        time[msg.sender] = 0;\n        percentWithdraw[msg.sender] = 0;\n        msg.sender.transfer(withdrawalAmount);\n    }\n\n}\n",
  "sourcePath": "/home/thisroot/Документы/crypto/learn-etherium/SimpleFinance/contracts/BankDeposit.sol",
  "compiler": {
    "name": "solc",
    "version": "0.5.16+commit.9c3226ce.Emscripten.clang"
  },
  "schemaVersion": "3.4.1",
  "updatedAt": "2021-05-17T10:15:43.216Z",
  "networkType": "ethereum",
  "devdoc": {
    "methods": {}
  },
  "userdoc": {
    "methods": {}
  }
}