{
  "contractName": "Insurance",
  "abi": [
    {
      "inputs": [],
      "payable": false,
      "stateMutability": "nonpayable",
      "type": "constructor"
    },
    {
      "anonymous": false,
      "inputs": [
        {
          "indexed": false,
          "internalType": "uint256",
          "name": "ID",
          "type": "uint256"
        },
        {
          "indexed": false,
          "internalType": "string",
          "name": "testName",
          "type": "string"
        },
        {
          "indexed": false,
          "internalType": "string",
          "name": "Date",
          "type": "string"
        },
        {
          "indexed": false,
          "internalType": "uint256",
          "name": "Price",
          "type": "uint256"
        }
      ],
      "name": "recordCreated",
      "type": "event"
    },
    {
      "anonymous": false,
      "inputs": [
        {
          "indexed": false,
          "internalType": "uint256",
          "name": "ID",
          "type": "uint256"
        },
        {
          "indexed": false,
          "internalType": "string",
          "name": "testName",
          "type": "string"
        },
        {
          "indexed": false,
          "internalType": "string",
          "name": "Date",
          "type": "string"
        },
        {
          "indexed": false,
          "internalType": "uint256",
          "name": "Price",
          "type": "uint256"
        }
      ],
      "name": "recordSigned",
      "type": "event"
    },
    {
      "constant": true,
      "inputs": [
        {
          "internalType": "uint256",
          "name": "",
          "type": "uint256"
        }
      ],
      "name": "allRecords",
      "outputs": [
        {
          "internalType": "address",
          "name": "Addr",
          "type": "address"
        },
        {
          "internalType": "uint256",
          "name": "ID",
          "type": "uint256"
        },
        {
          "internalType": "string",
          "name": "Name",
          "type": "string"
        },
        {
          "internalType": "string",
          "name": "Date",
          "type": "string"
        },
        {
          "internalType": "uint256",
          "name": "Price",
          "type": "uint256"
        },
        {
          "internalType": "bool",
          "name": "IsValue",
          "type": "bool"
        },
        {
          "internalType": "uint256",
          "name": "SignatureCount",
          "type": "uint256"
        }
      ],
      "payable": false,
      "stateMutability": "view",
      "type": "function"
    },
    {
      "constant": true,
      "inputs": [],
      "name": "hospital",
      "outputs": [
        {
          "internalType": "address payable",
          "name": "",
          "type": "address"
        }
      ],
      "payable": false,
      "stateMutability": "view",
      "type": "function"
    },
    {
      "constant": true,
      "inputs": [],
      "name": "insurer",
      "outputs": [
        {
          "internalType": "address payable",
          "name": "",
          "type": "address"
        }
      ],
      "payable": false,
      "stateMutability": "view",
      "type": "function"
    },
    {
      "constant": true,
      "inputs": [
        {
          "internalType": "uint256",
          "name": "",
          "type": "uint256"
        }
      ],
      "name": "recordsArr",
      "outputs": [
        {
          "internalType": "uint256",
          "name": "",
          "type": "uint256"
        }
      ],
      "payable": false,
      "stateMutability": "view",
      "type": "function"
    },
    {
      "constant": false,
      "inputs": [
        {
          "internalType": "uint256",
          "name": "ID",
          "type": "uint256"
        },
        {
          "internalType": "string",
          "name": "Name",
          "type": "string"
        },
        {
          "internalType": "string",
          "name": "Date",
          "type": "string"
        },
        {
          "internalType": "uint256",
          "name": "Price",
          "type": "uint256"
        }
      ],
      "name": "newRecord",
      "outputs": [],
      "payable": false,
      "stateMutability": "nonpayable",
      "type": "function"
    },
    {
      "constant": false,
      "inputs": [
        {
          "internalType": "uint256",
          "name": "ID",
          "type": "uint256"
        }
      ],
      "name": "signRecord",
      "outputs": [],
      "payable": true,
      "stateMutability": "payable",
      "type": "function"
    }
  ],
  "bytecode": "0x608060405234801561001057600080fd5b5073bb7ab87291f68a8e6ff6b496ab02da61639d83bb6000806101000a81548173ffffffffffffffffffffffffffffffffffffffff021916908373ffffffffffffffffffffffffffffffffffffffff1602179055507335f7b221036150d93b6ce90d8302ae3ea5a099ce600160006101000a81548173ffffffffffffffffffffffffffffffffffffffff021916908373ffffffffffffffffffffffffffffffffffffffff160217905550610ce0806100c96000396000f3fe6080604052600436106100555760003560e01c8063549b39fc1461005a5780635bd2108e146100a95780637e257dc81461021c578063a508d0ed1461038f578063aa2fedde146103bd578063dbc837c514610414575b600080fd5b34801561006657600080fd5b506100936004803603602081101561007d57600080fd5b810190808035906020019092919050505061046b565b6040518082815260200191505060405180910390f35b3480156100b557600080fd5b5061021a600480360360808110156100cc57600080fd5b8101908080359060200190929190803590602001906401000000008111156100f357600080fd5b82018360208201111561010557600080fd5b8035906020019184600183028401116401000000008311171561012757600080fd5b91908080601f016020809104026020016040519081016040528093929190818152602001838380828437600081840152601f19601f8201169050808301925050505050505091929192908035906020019064010000000081111561018a57600080fd5b82018360208201111561019c57600080fd5b803590602001918460018302840111640100000000831117156101be57600080fd5b91908080601f016020809104026020016040519081016040528093929190818152602001838380828437600081840152601f19601f8201169050808301925050505050505091929192908035906020019092919050505061048c565b005b34801561022857600080fd5b506102556004803603602081101561023f57600080fd5b81019080803590602001909291905050506106cf565b604051808873ffffffffffffffffffffffffffffffffffffffff1673ffffffffffffffffffffffffffffffffffffffff168152602001878152602001806020018060200186815260200185151515158152602001848152602001838103835288818151815260200191508051906020019080838360005b838110156102e75780820151818401526020810190506102cc565b50505050905090810190601f1680156103145780820380516001836020036101000a031916815260200191505b50838103825287818151815260200191508051906020019080838360005b8381101561034d578082015181840152602081019050610332565b50505050905090810190601f16801561037a5780820380516001836020036101000a031916815260200191505b50995050505050505050505060405180910390f35b6103bb600480360360208110156103a557600080fd5b810190808035906020019092919050505061086e565b005b3480156103c957600080fd5b506103d2610bbb565b604051808273ffffffffffffffffffffffffffffffffffffffff1673ffffffffffffffffffffffffffffffffffffffff16815260200191505060405180910390f35b34801561042057600080fd5b50610429610be0565b604051808273ffffffffffffffffffffffffffffffffffffffff1673ffffffffffffffffffffffffffffffffffffffff16815260200191505060405180910390f35b6003818154811061047857fe5b906000526020600020016000915090505481565b60006002600086815260200190815260200160002090506002600086815260200190815260200160002060050160009054906101000a900460ff16156104d157600080fd5b338160000160006101000a81548173ffffffffffffffffffffffffffffffffffffffff021916908373ffffffffffffffffffffffffffffffffffffffff16021790555084816001018190555083816002019080519060200190610535929190610c06565b508281600301908051906020019061054e929190610c06565b5081816004018190555060018160050160006101000a81548160ff0219169083151502179055506000816006018190555060038590806001815401808255809150509060018203906000526020600020016000909192909190915055507f280605db1804991625bee5d9ac659a66a80038574752cdda8a85aead408494c78160010154858585604051808581526020018060200180602001848152602001838103835286818151815260200191508051906020019080838360005b83811015610624578082015181840152602081019050610609565b50505050905090810190601f1680156106515780820380516001836020036101000a031916815260200191505b50838103825285818151815260200191508051906020019080838360005b8381101561068a57808201518184015260208101905061066f565b50505050905090810190601f1680156106b75780820380516001836020036101000a031916815260200191505b50965050505050505060405180910390a15050505050565b60026020528060005260406000206000915090508060000160009054906101000a900473ffffffffffffffffffffffffffffffffffffffff1690806001015490806002018054600181600116156101000203166002900480601f0160208091040260200160405190810160405280929190818152602001828054600181600116156101000203166002900480156107a75780601f1061077c576101008083540402835291602001916107a7565b820191906000526020600020905b81548152906001019060200180831161078a57829003601f168201915b505050505090806003018054600181600116156101000203166002900480601f0160208091040260200160405190810160405280929190818152602001828054600181600116156101000203166002900480156108455780601f1061081a57610100808354040283529160200191610845565b820191906000526020600020905b81548152906001019060200180831161082857829003601f168201915b5050505050908060040154908060050160009054906101000a900460ff16908060060154905087565b6000809054906101000a900473ffffffffffffffffffffffffffffffffffffffff1673ffffffffffffffffffffffffffffffffffffffff163373ffffffffffffffffffffffffffffffffffffffff1614806109165750600160009054906101000a900473ffffffffffffffffffffffffffffffffffffffff1673ffffffffffffffffffffffffffffffffffffffff163373ffffffffffffffffffffffffffffffffffffffff16145b61091f57600080fd5b600060026000838152602001908152602001600020905060018160070160003373ffffffffffffffffffffffffffffffffffffffff1673ffffffffffffffffffffffffffffffffffffffff16815260200190815260200160002054141561098557600080fd5b60018160070160003373ffffffffffffffffffffffffffffffffffffffff1673ffffffffffffffffffffffffffffffffffffffff1681526020019081526020016000208190555080600601600081548092919060010191905055507f28ecfcfe86487dce5d90ed37a865ac7f7a4c769ce8e33096c101c23ab681f9ca816001015482600201836003018460040154604051808581526020018060200180602001848152602001838103835286818154600181600116156101000203166002900481526020019150805460018160011615610100020316600290048015610aac5780601f10610a8157610100808354040283529160200191610aac565b820191906000526020600020905b815481529060010190602001808311610a8f57829003601f168201915b5050838103825285818154600181600116156101000203166002900481526020019150805460018160011615610100020316600290048015610b2f5780601f10610b0457610100808354040283529160200191610b2f565b820191906000526020600020905b815481529060010190602001808311610b1257829003601f168201915b5050965050505050505060405180910390a1600281600601541415610bb7576000809054906101000a900473ffffffffffffffffffffffffffffffffffffffff1673ffffffffffffffffffffffffffffffffffffffff166108fc479081150290604051600060405180830381858888f19350505050158015610bb5573d6000803e3d6000fd5b505b5050565b6000809054906101000a900473ffffffffffffffffffffffffffffffffffffffff1681565b600160009054906101000a900473ffffffffffffffffffffffffffffffffffffffff1681565b828054600181600116156101000203166002900490600052602060002090601f016020900481019282601f10610c4757805160ff1916838001178555610c75565b82800160010185558215610c75579182015b82811115610c74578251825591602001919060010190610c59565b5b509050610c829190610c86565b5090565b610ca891905b80821115610ca4576000816000905550600101610c8c565b5090565b9056fea265627a7a723158207682298a1b72448a0885219df6fcba644acfa5115198a625884aa603c2c8741a64736f6c63430005100032",
  "source": "// SPDX-License-Identifier: MIT\npragma solidity >=0.4.22 <0.9.0;\n\ncontract Insurance {\n    address payable public hospital;\n    address payable public insurer;\n\n    struct Record {\n        address Addr;\n        uint256 ID;\n        string Name;\n        string Date;\n        uint256 Price;\n        bool IsValue;\n        uint256 SignatureCount;\n        mapping (address => uint256) Signatures;\n    }\n\n    modifier signOnly {\n        require(msg.sender == hospital || msg.sender == insurer);\n        _;\n    }\n    constructor() public {\n        hospital = 0xbB7aB87291f68A8E6fF6B496Ab02dA61639D83bB;\n        insurer = 0x35f7b221036150D93B6cE90D8302aE3Ea5a099CE;\n    }\n\n    mapping(uint256 => Record) public allRecords;\n    uint256 [] public recordsArr;\n\n    event recordCreated(uint256 ID, string testName, string Date, uint256 Price);\n    event recordSigned(uint256 ID, string testName, string Date, uint256 Price);\n\n    function newRecord (uint256 ID, string memory Name, string memory Date, uint256 Price) public {\n        Record storage newrecord = allRecords[ID];\n        require(!allRecords[ID].IsValue);\n        newrecord.Addr = msg.sender;\n        newrecord.ID = ID;\n        newrecord.Name = Name;\n        newrecord.Date = Date;\n        newrecord.Price = Price;\n        newrecord.IsValue = true;\n        newrecord.SignatureCount = 0;\n        recordsArr.push(ID);\n        emit recordCreated(newrecord.ID, Name, Date, Price);\n    }\n    function signRecord(uint256 ID) signOnly public payable {\n        Record storage records = allRecords[ID];\n        require(records.Signatures[msg.sender] != 1);\n        records.Signatures[msg.sender] = 1;\n        records.SignatureCount++;\n        emit recordSigned(records.ID, records.Name, records.Date, records.Price);\n        if(records.SignatureCount == 2) {\n            hospital.transfer(address(this).balance);\n        }\n    }\n}\n",
  "sourcePath": "/home/thisroot/Документы/crypto/learn-etherium/SimpleFinance/contracts/Insurance.sol",
  "compiler": {
    "name": "solc",
    "version": "0.5.16+commit.9c3226ce.Emscripten.clang"
  },
  "schemaVersion": "3.4.1",
  "updatedAt": "2021-05-17T10:15:43.463Z",
  "networkType": "ethereum",
  "devdoc": {
    "methods": {}
  },
  "userdoc": {
    "methods": {}
  }
}