{
  "contractName": "Voting",
  "abi": [
    {
      "inputs": [
        {
          "internalType": "bytes32[]",
          "name": "candidateNames",
          "type": "bytes32[]"
        }
      ],
      "payable": false,
      "stateMutability": "nonpayable",
      "type": "constructor"
    },
    {
      "constant": true,
      "inputs": [
        {
          "internalType": "uint256",
          "name": "",
          "type": "uint256"
        }
      ],
      "name": "candidateList",
      "outputs": [
        {
          "internalType": "bytes32",
          "name": "",
          "type": "bytes32"
        }
      ],
      "payable": false,
      "stateMutability": "view",
      "type": "function"
    },
    {
      "constant": true,
      "inputs": [
        {
          "internalType": "bytes32",
          "name": "",
          "type": "bytes32"
        }
      ],
      "name": "votesReceived",
      "outputs": [
        {
          "internalType": "uint256",
          "name": "",
          "type": "uint256"
        }
      ],
      "payable": false,
      "stateMutability": "view",
      "type": "function"
    },
    {
      "constant": true,
      "inputs": [
        {
          "internalType": "bytes32",
          "name": "candidate",
          "type": "bytes32"
        }
      ],
      "name": "tatalVotesFor",
      "outputs": [
        {
          "internalType": "uint256",
          "name": "",
          "type": "uint256"
        }
      ],
      "payable": false,
      "stateMutability": "view",
      "type": "function"
    },
    {
      "constant": false,
      "inputs": [
        {
          "internalType": "bytes32",
          "name": "candidate",
          "type": "bytes32"
        }
      ],
      "name": "voteForCandidate",
      "outputs": [],
      "payable": false,
      "stateMutability": "nonpayable",
      "type": "function"
    },
    {
      "constant": true,
      "inputs": [
        {
          "internalType": "bytes32",
          "name": "candidate",
          "type": "bytes32"
        }
      ],
      "name": "validCandidate",
      "outputs": [
        {
          "internalType": "bool",
          "name": "",
          "type": "bool"
        }
      ],
      "payable": false,
      "stateMutability": "view",
      "type": "function"
    }
  ],
  "bytecode": "0x608060405234801561001057600080fd5b506040516104f93803806104f98339818101604052602081101561003357600080fd5b810190808051604051939291908464010000000082111561005357600080fd5b8382019150602082018581111561006957600080fd5b825186602082028301116401000000008211171561008657600080fd5b8083526020830192505050908051906020019060200280838360005b838110156100bd5780820151818401526020810190506100a2565b5050505090500160405250505080600190805190602001906100e09291906100e7565b5050610159565b828054828255906000526020600020908101928215610123579160200282015b82811115610122578251825591602001919060010190610107565b5b5090506101309190610134565b5090565b61015691905b8082111561015257600081600090555060010161013a565b5090565b90565b610391806101686000396000f3fe608060405234801561001057600080fd5b50600436106100575760003560e01c80631f2947d01461005c578063392e66781461009e5780637021939f146100e4578063b13c744b14610126578063cc9ab26714610168575b600080fd5b6100886004803603602081101561007257600080fd5b8101908080359060200190929190505050610196565b6040518082815260200191505060405180910390f35b6100ca600480360360208110156100b457600080fd5b810190808035906020019092919050505061022d565b604051808215151515815260200191505060405180910390f35b610110600480360360208110156100fa57600080fd5b8101908080359060200190929190505050610283565b6040518082815260200191505060405180910390f35b6101526004803603602081101561013c57600080fd5b810190808035906020019092919050505061029b565b6040518082815260200191505060405180910390f35b6101946004803603602081101561017e57600080fd5b81019080803590602001909291905050506102bc565b005b60006101a18261022d565b610213576040517f08c379a00000000000000000000000000000000000000000000000000000000081526004018080602001828103825260138152602001807f43616e646964617465206e6f742065786973740000000000000000000000000081525060200191505060405180910390fd5b600080838152602001908152602001600020549050919050565b600080600090505b60018054905081101561027857826001828154811061025057fe5b9060005260206000200154141561026b57600191505061027e565b8080600101915050610235565b50600090505b919050565b60006020528060005260406000206000915090505481565b600181815481106102a857fe5b906000526020600020016000915090505481565b6102c58161022d565b610337576040517f08c379a00000000000000000000000000000000000000000000000000000000081526004018080602001828103825260138152602001807f43616e646964617465206e6f742065786973740000000000000000000000000081525060200191505060405180910390fd5b600080828152602001908152602001600020600081548092919060010191905055505056fea265627a7a723158200606721e07972068324aae92c5d2d8121680bbd4f34785e60189abdf656d41dd64736f6c63430005100032",
  "source": "// SPDX-License-Identifier: MIT\npragma solidity >=0.4.22 <0.9.0;\n\ncontract Voting {\n    mapping(bytes32 => uint256) public votesReceived;\n    bytes32 [] public candidateList;\n\n    constructor(bytes32[] memory candidateNames) public {\n        candidateList = candidateNames;\n    }\n\n    function tatalVotesFor(bytes32 candidate) view public returns (uint256) {\n        require(validCandidate(candidate), \"Candidate not exist\");\n        return votesReceived[candidate];\n    }\n\n    function voteForCandidate(bytes32 candidate) public {\n        require(validCandidate(candidate), \"Candidate not exist\");\n        votesReceived[candidate]++;\n    }\n\n    function validCandidate(bytes32 candidate) view public returns (bool) {\n        for (uint i = 0; i < candidateList.length; i++) {\n            if (candidateList[i] == candidate) {\n                return true;\n            }\n        }\n        return false;\n    }\n}\n",
  "sourcePath": "/home/thisroot/Документы/crypto/learn-etherium/SimpleDapp/contracts/Voting.sol",
  "compiler": {
    "name": "solc",
    "version": "0.5.16+commit.9c3226ce.Emscripten.clang"
  },
  "schemaVersion": "3.4.1",
  "updatedAt": "2021-05-18T12:12:19.575Z",
  "networkType": "ethereum",
  "devdoc": {
    "methods": {}
  },
  "userdoc": {
    "methods": {}
  }
}