{
  "contractName": "Dice",
  "abi": [
    {
      "inputs": [],
      "payable": false,
      "stateMutability": "nonpayable",
      "type": "constructor"
    },
    {
      "constant": true,
      "inputs": [],
      "name": "manager",
      "outputs": [
        {
          "internalType": "address",
          "name": "",
          "type": "address"
        }
      ],
      "payable": false,
      "stateMutability": "view",
      "type": "function"
    },
    {
      "constant": true,
      "inputs": [
        {
          "internalType": "uint256",
          "name": "",
          "type": "uint256"
        }
      ],
      "name": "players",
      "outputs": [
        {
          "internalType": "address payable",
          "name": "",
          "type": "address"
        }
      ],
      "payable": false,
      "stateMutability": "view",
      "type": "function"
    },
    {
      "constant": false,
      "inputs": [],
      "name": "CEO",
      "outputs": [],
      "payable": false,
      "stateMutability": "nonpayable",
      "type": "function"
    },
    {
      "constant": false,
      "inputs": [],
      "name": "Enter",
      "outputs": [],
      "payable": true,
      "stateMutability": "payable",
      "type": "function"
    },
    {
      "constant": false,
      "inputs": [],
      "name": "Winner",
      "outputs": [
        {
          "internalType": "string",
          "name": "",
          "type": "string"
        },
        {
          "internalType": "uint256",
          "name": "",
          "type": "uint256"
        },
        {
          "internalType": "uint256",
          "name": "",
          "type": "uint256"
        }
      ],
      "payable": true,
      "stateMutability": "payable",
      "type": "function"
    }
  ],
  "bytecode": "0x608060405234801561001057600080fd5b50336000806101000a81548173ffffffffffffffffffffffffffffffffffffffff021916908373ffffffffffffffffffffffffffffffffffffffff1602179055506106dc806100606000396000f3fe60806040526004361061004a5760003560e01c80631097e5791461004f578063481c6a7514610059578063a1088571146100b0578063b2b98ed2146100c7578063f71d96cb14610158575b600080fd5b6100576101d3565b005b34801561006557600080fd5b5061006e6102b7565b604051808273ffffffffffffffffffffffffffffffffffffffff1673ffffffffffffffffffffffffffffffffffffffff16815260200191505060405180910390f35b3480156100bc57600080fd5b506100c56102dc565b005b6100cf61031e565b6040518080602001848152602001838152602001828103825285818151815260200191508051906020019080838360005b8381101561011b578082015181840152602081019050610100565b50505050905090810190601f1680156101485780820380516001836020036101000a031916815260200191505b5094505050505060405180910390f35b34801561016457600080fd5b506101916004803603602081101561017b57600080fd5b81019080803590602001909291905050506105e4565b604051808273ffffffffffffffffffffffffffffffffffffffff1673ffffffffffffffffffffffffffffffffffffffff16815260200191505060405180910390f35b66038d7ea4c68000341161024f576040517f08c379a000000000000000000000000000000000000000000000000000000000815260040180806020018281038252600c8152602001807f44696365206973206c6f7721000000000000000000000000000000000000000081525060200191505060405180910390fd5b60013390806001815401808255809150509060018203906000526020600020016000909192909190916101000a81548173ffffffffffffffffffffffffffffffffffffffff021916908373ffffffffffffffffffffffffffffffffffffffff16021790555050565b6000809054906101000a900473ffffffffffffffffffffffffffffffffffffffff1681565b336000806101000a81548173ffffffffffffffffffffffffffffffffffffffff021916908373ffffffffffffffffffffffffffffffffffffffff160217905550565b60606000806000809054906101000a900473ffffffffffffffffffffffffffffffffffffffff1673ffffffffffffffffffffffffffffffffffffffff163373ffffffffffffffffffffffffffffffffffffffff16146103e5576040517f08c379a00000000000000000000000000000000000000000000000000000000081526004018080602001828103825260118152602001807f5065726d697373696f6e2064656e69656400000000000000000000000000000081525060200191505060405180910390fd5b60006103f16000610620565b905060006103ff6001610620565b9050808211156104cf57600160008154811061041757fe5b9060005260206000200160009054906101000a900473ffffffffffffffffffffffffffffffffffffffff1673ffffffffffffffffffffffffffffffffffffffff166108fc479081150290604051600060405180830381858888f19350505050158015610487573d6000803e3d6000fd5b5081816040518060400160405280601281526020017f3120706c617965722069732057696e6e65720000000000000000000000000000815250919094509450945050506105df565b8082101561059c57600180815481106104e457fe5b9060005260206000200160009054906101000a900473ffffffffffffffffffffffffffffffffffffffff1673ffffffffffffffffffffffffffffffffffffffff166108fc479081150290604051600060405180830381858888f19350505050158015610554573d6000803e3d6000fd5b5081816040518060400160405280601281526020017f3220706c617965722069732057696e6e65720000000000000000000000000000815250919094509450945050506105df565b81816040518060400160405280600e81526020017f4e6f626f64792077696e6e657273000000000000000000000000000000000000815250919094509450945050505b909192565b600181815481106105f157fe5b906000526020600020016000915054906101000a900473ffffffffffffffffffffffffffffffffffffffff1681565b600080600a423385604051602001808481526020018373ffffffffffffffffffffffffffffffffffffffff1673ffffffffffffffffffffffffffffffffffffffff1660601b815260140182815260200193505050506040516020818303038152906040528051906020012060001c8161069557fe5b0690506002810190508091505091905056fea265627a7a723158207a336bd7f4bc9846ab251d85e1109d1391860c7b69f67255f166cbb920e5b57564736f6c63430005100032",
  "source": "// SPDX-License-Identifier: MIT\npragma solidity >=0.4.22 <0.9.0;\n\ncontract Dice {\n\n    address public manager;\n    address payable[] public players;\n\n    modifier onlyManager() {\n        require(manager == msg.sender, \"Permission denied\");\n        _;\n    }\n\n    constructor() public {\n        manager = msg.sender;\n    }\n\n    function CEO() public {\n        manager = msg.sender;\n    }\n\n    function Enter() public payable {\n        require(msg.value > .001 ether, \"Dice is low!\");\n        players.push(msg.sender);\n    }\n\n    function getRandomNumber(uint number) private view returns (uint) {\n        uint brosok = uint(keccak256(abi.encodePacked(now, msg.sender, number))) % 10;\n        brosok = brosok + 2;\n        return (brosok);\n    }\n\n    function Winner() public payable restricted returns (string memory, uint, uint) {\n        uint player1 = getRandomNumber(0);\n        uint player2 = getRandomNumber(1);\n        if (player1 > player2) {\n            players[0].transfer(address(this).balance);\n            return (\"1 player is Winner\", player1, player2);\n        }\n        else if (player1 < player2) {\n            players[1].transfer(address(this).balance);\n            return (\"2 player is Winner\", player1, player2);\n        }\n        else return (\"Nobody winners\", player1, player2);\n    }\n\n    modifier restricted() {\n        require(msg.sender == manager, \"Permission denied\");\n        _;\n    }\n}\n",
  "sourcePath": "/home/thisroot/Документы/crypto/learn-etherium/SimpleGames/contracts/Dice.sol",
  "compiler": {
    "name": "solc",
    "version": "0.5.16+commit.9c3226ce.Emscripten.clang"
  },
  "schemaVersion": "3.4.1",
  "updatedAt": "2021-05-17T10:51:25.758Z",
  "devdoc": {
    "methods": {}
  },
  "userdoc": {
    "methods": {}
  }
}