{
  "contractName": "DragonFarm",
  "abi": [
    {
      "anonymous": false,
      "inputs": [
        {
          "indexed": false,
          "internalType": "uint256",
          "name": "id",
          "type": "uint256"
        },
        {
          "indexed": false,
          "internalType": "string",
          "name": "name",
          "type": "string"
        },
        {
          "indexed": false,
          "internalType": "uint256",
          "name": "dna",
          "type": "uint256"
        }
      ],
      "name": "NewDragon",
      "type": "event"
    },
    {
      "constant": true,
      "inputs": [
        {
          "internalType": "uint256",
          "name": "",
          "type": "uint256"
        }
      ],
      "name": "DragonOwner",
      "outputs": [
        {
          "internalType": "address",
          "name": "",
          "type": "address"
        }
      ],
      "payable": false,
      "stateMutability": "view",
      "type": "function"
    },
    {
      "constant": true,
      "inputs": [
        {
          "internalType": "uint256",
          "name": "",
          "type": "uint256"
        }
      ],
      "name": "dragons",
      "outputs": [
        {
          "internalType": "uint256",
          "name": "id",
          "type": "uint256"
        },
        {
          "internalType": "string",
          "name": "name",
          "type": "string"
        },
        {
          "internalType": "uint256",
          "name": "dna",
          "type": "uint256"
        }
      ],
      "payable": false,
      "stateMutability": "view",
      "type": "function"
    },
    {
      "constant": true,
      "inputs": [
        {
          "internalType": "address",
          "name": "",
          "type": "address"
        }
      ],
      "name": "ownerDragons",
      "outputs": [
        {
          "internalType": "uint256",
          "name": "",
          "type": "uint256"
        }
      ],
      "payable": false,
      "stateMutability": "view",
      "type": "function"
    },
    {
      "constant": false,
      "inputs": [
        {
          "internalType": "string",
          "name": "name",
          "type": "string"
        }
      ],
      "name": "CreateDragon",
      "outputs": [],
      "payable": false,
      "stateMutability": "nonpayable",
      "type": "function"
    }
  ],
  "bytecode": "0x608060405234801561001057600080fd5b50610747806100206000396000f3fe608060405234801561001057600080fd5b506004361061004c5760003560e01c80630c50c644146100515780630fab557b146100bf578063d2a59d691461017a578063fa9b360f1461022f575b600080fd5b61007d6004803603602081101561006757600080fd5b8101908080359060200190929190505050610287565b604051808273ffffffffffffffffffffffffffffffffffffffff1673ffffffffffffffffffffffffffffffffffffffff16815260200191505060405180910390f35b610178600480360360208110156100d557600080fd5b81019080803590602001906401000000008111156100f257600080fd5b82018360208201111561010457600080fd5b8035906020019184600183028401116401000000008311171561012657600080fd5b91908080601f016020809104026020016040519081016040528093929190818152602001838380828437600081840152601f19601f8201169050808301925050505050505091929192905050506102ba565b005b6101a66004803603602081101561019057600080fd5b81019080803590602001909291905050506104d9565b6040518084815260200180602001838152602001828103825284818151815260200191508051906020019080838360005b838110156101f25780820151818401526020810190506101d7565b50505050905090810190601f16801561021f5780820380516001836020036101000a031916815260200191505b5094505050505060405180910390f35b6102716004803603602081101561024557600080fd5b81019080803573ffffffffffffffffffffffffffffffffffffffff1690602001909291905050506105a8565b6040518082815260200191505060405180910390f35b60016020528060005260406000206000915054906101000a900473ffffffffffffffffffffffffffffffffffffffff1681565b60006102c5826105c0565b90506000600260003373ffffffffffffffffffffffffffffffffffffffff1673ffffffffffffffffffffffffffffffffffffffff16815260200190815260200160002054905060006040518060600160405280838152602001858152602001848152509080600181540180825580915050906001820390600052602060002090600302016000909192909190915060008201518160000155602082015181600101908051906020019061037992919061066d565b5060408201518160020155505050336001600083815260200190815260200160002060006101000a81548173ffffffffffffffffffffffffffffffffffffffff021916908373ffffffffffffffffffffffffffffffffffffffff1602179055507f094a968afe62c9f0ce8d6395ff90deb5cbe7809a9ea66019ef5c61335ab3f1178184846040518084815260200180602001838152602001828103825284818151815260200191508051906020019080838360005b8381101561044957808201518184015260208101905061042e565b50505050905090810190601f1680156104765780820380516001836020036101000a031916815260200191505b5094505050505060405180910390a1600260003373ffffffffffffffffffffffffffffffffffffffff1673ffffffffffffffffffffffffffffffffffffffff16815260200190815260200160002060008154809291906001019190505550505050565b600081815481106104e657fe5b9060005260206000209060030201600091509050806000015490806001018054600181600116156101000203166002900480601f0160208091040260200160405190810160405280929190818152602001828054600181600116156101000203166002900480156105985780601f1061056d57610100808354040283529160200191610598565b820191906000526020600020905b81548152906001019060200180831161057b57829003601f168201915b5050505050908060020154905083565b60026020528060005260406000206000915090505481565b600080826040516020018080602001828103825283818151815260200191508051906020019080838360005b838110156106075780820151818401526020810190506105ec565b50505050905090810190601f1680156106345780820380516001836020036101000a031916815260200191505b50925050506040516020818303038152906040528051906020012060001c9050662386f26fc10000818161066457fe5b06915050919050565b828054600181600116156101000203166002900490600052602060002090601f016020900481019282601f106106ae57805160ff19168380011785556106dc565b828001600101855582156106dc579182015b828111156106db5782518255916020019190600101906106c0565b5b5090506106e991906106ed565b5090565b61070f91905b8082111561070b5760008160009055506001016106f3565b5090565b9056fea265627a7a7231582010c7b6eb0dad6426b4a5feda4f60889d39ecd9589718ecda5d5bb8de0f99811364736f6c63430005100032",
  "source": "// SPDX-License-Identifier: MIT\npragma solidity >=0.4.22 <0.9.0;\n\ncontract DragonFarm {\n    event NewDragon(uint id, string name, uint dna);\n\n    struct Dragon {\n        uint id;\n        string name;\n        uint dna;\n    }\n\n    Dragon[] public dragons;\n    mapping(uint => address) public DragonOwner;\n    mapping(address => uint) public ownerDragons;\n\n    function GenerateRandomDna(string memory _str) private view returns (uint) {\n        uint rand = uint(keccak256(abi.encode(_str)));\n        return rand % (10 ** 16);\n    }\n\n    function CreateDragon(string memory name) public {\n        uint dna = GenerateRandomDna(name);\n        uint id = ownerDragons[msg.sender];\n        dragons.push(Dragon(id, name, dna));\n        DragonOwner[id] = msg.sender;\n        emit NewDragon(id, name, dna);\n        ownerDragons[msg.sender]++;\n    }\n}\n",
  "sourcePath": "/home/thisroot/Документы/crypto/learn-etherium/SimpleGames/contracts/DragonFarm.sol",
  "compiler": {
    "name": "solc",
    "version": "0.5.16+commit.9c3226ce.Emscripten.clang"
  },
  "schemaVersion": "3.4.1",
  "updatedAt": "2021-05-17T10:51:25.761Z",
  "devdoc": {
    "methods": {}
  },
  "userdoc": {
    "methods": {}
  }
}