{
  "contractName": "RLottery",
  "abi": [
    {
      "constant": true,
      "inputs": [
        {
          "internalType": "uint256",
          "name": "",
          "type": "uint256"
        }
      ],
      "name": "players",
      "outputs": [
        {
          "internalType": "uint256",
          "name": "Num",
          "type": "uint256"
        }
      ],
      "payable": false,
      "stateMutability": "view",
      "type": "function"
    },
    {
      "constant": false,
      "inputs": [
        {
          "internalType": "uint256",
          "name": "Num",
          "type": "uint256"
        }
      ],
      "name": "getTickets",
      "outputs": [],
      "payable": true,
      "stateMutability": "payable",
      "type": "function"
    },
    {
      "constant": true,
      "inputs": [],
      "name": "Winner",
      "outputs": [
        {
          "internalType": "string",
          "name": "",
          "type": "string"
        },
        {
          "internalType": "uint256",
          "name": "",
          "type": "uint256"
        }
      ],
      "payable": false,
      "stateMutability": "view",
      "type": "function"
    }
  ],
  "bytecode": "0x608060405234801561001057600080fd5b50610321806100206000396000f3fe6080604052600436106100345760003560e01c806314f2979f14610039578063b2b98ed214610067578063f71d96cb146100fe575b600080fd5b6100656004803603602081101561004f57600080fd5b810190808035906020019092919050505061014d565b005b34801561007357600080fd5b5061007c6101f5565b6040518080602001838152602001828103825284818151815260200191508051906020019080838360005b838110156100c25780820151818401526020810190506100a7565b50505050905090810190601f1680156100ef5780820380516001836020036101000a031916815260200191505b50935050505060405180910390f35b34801561010a57600080fd5b506101376004803603602081101561012157600080fd5b81019080803590602001909291905050506102ce565b6040518082815260200191505060405180910390f35b600a8111156101c4576040517f08c379a000000000000000000000000000000000000000000000000000000000815260040180806020018281038252601d8152602001807f313020706c61796572732077617320726567697374657265642079657400000081525060200191505060405180910390fd5b6040518060200160405280828152506000808381526020019081526020016000206000820151816000015590505050565b6060600080600a90506000806009423385604051602001808481526020018373ffffffffffffffffffffffffffffffffffffffff1673ffffffffffffffffffffffffffffffffffffffff1660601b815260140182815260200193505050506040516020818303038152906040528051906020012060001c8161027357fe5b0690508080600101915050600a818161028857fe5b069150816040518060400160405280601081526020017f57696e6e6572206e756d6265722069730000000000000000000000000000000081525090945094505050509091565b6000602052806000526040600020600091509050806000015490508156fea265627a7a72315820497dd0c92a0cbe80e15d946bfc1b78beb9b3ba6ac17fa86a4217664d291285a764736f6c63430005100032",
  "source": "// SPDX-License-Identifier: MIT\npragma solidity >=0.4.22 <0.9.0;\n\ncontract RLottery {\n    struct player {\n        uint Num;\n    }\n\n    mapping(uint => player) public players;\n\n    function getTickets(uint Num) public payable {\n        require(Num <= 10, \"10 players was registered yet\");\n        players[Num] = player(Num);\n    }\n\n    function Winner() public view returns (string memory, uint) {\n        uint length = 10;\n        uint index;\n        uint randomNumber = uint(keccak256(abi.encodePacked(now, msg.sender, length))) % 9;\n        randomNumber++;\n        index = randomNumber % 10;\n        return (\"Winner number is\", index);\n    }\n}\n",
  "sourcePath": "/home/thisroot/Документы/crypto/learn-etherium/SimpleGames/contracts/RLottery.sol",
  "compiler": {
    "name": "solc",
    "version": "0.5.16+commit.9c3226ce.Emscripten.clang"
  },
  "schemaVersion": "3.4.1",
  "updatedAt": "2021-05-17T10:51:25.766Z",
  "devdoc": {
    "methods": {}
  },
  "userdoc": {
    "methods": {}
  }
}