{
  "contractName": "Factorial",
  "abi": [
    {
      "constant": true,
      "inputs": [
        {
          "internalType": "uint256",
          "name": "n",
          "type": "uint256"
        }
      ],
      "name": "getFactorial",
      "outputs": [
        {
          "internalType": "uint256",
          "name": "",
          "type": "uint256"
        }
      ],
      "payable": false,
      "stateMutability": "pure",
      "type": "function"
    }
  ],
  "bytecode": "0x608060405234801561001057600080fd5b5060d08061001f6000396000f3fe6080604052348015600f57600080fd5b506004361060285760003560e01c80638235841414602d575b600080fd5b605660048036036020811015604157600080fd5b8101908080359060200190929190505050606c565b6040518082815260200191505060405180910390f35b600080600190506000600190505b83811160915780820291508080600101915050607a565b508091505091905056fea265627a7a723158204780a879f653fac6a1f0f83281d3fc3cfeb5347a038805c5bcfb7fac838c279464736f6c63430005100032",
  "source": "// SPDX-License-Identifier: MIT\npragma solidity >=0.4.22 <0.9.0;\n\ncontract Factorial {\n    function getFactorial(uint n) public pure returns (uint256) {\n        uint256 f = 1;\n        for (uint i = 1; i <= n; i++) f = f * i;\n        return f;\n    }\n}\n",
  "sourcePath": "/home/thisroot/Документы/projects/crypto/learn-etherium/SimpleContracts/contracts/Factorial.sol",
  "compiler": {
    "name": "solc",
    "version": "0.5.16+commit.9c3226ce.Emscripten.clang"
  },
  "schemaVersion": "3.4.1",
  "updatedAt": "2021-05-13T06:09:55.601Z",
  "networkType": "ethereum",
  "devdoc": {
    "methods": {}
  },
  "userdoc": {
    "methods": {}
  }
}